{
  "contractName": "FundMe",
  "abi": [
    {
      "inputs": [],
      "stateMutability": "nonpayable",
      "type": "constructor"
    },
    {
      "anonymous": false,
      "inputs": [
        {
          "indexed": true,
          "internalType": "address",
          "name": "sender",
          "type": "address"
        },
        {
          "indexed": false,
          "internalType": "uint256",
          "name": "amount",
          "type": "uint256"
        }
      ],
      "name": "Received",
      "type": "event"
    },
    {
      "stateMutability": "payable",
      "type": "fallback",
      "payable": true
    },
    {
      "inputs": [],
      "name": "owner",
      "outputs": [
        {
          "internalType": "address payable",
          "name": "",
          "type": "address"
        }
      ],
      "stateMutability": "view",
      "type": "function",
      "constant": true
    },
    {
      "stateMutability": "payable",
      "type": "receive",
      "payable": true
    },
    {
      "inputs": [],
      "name": "getOwner",
      "outputs": [
        {
          "internalType": "address",
          "name": "",
          "type": "address"
        }
      ],
      "stateMutability": "view",
      "type": "function",
      "constant": true
    },
    {
      "inputs": [],
      "name": "getBalance",
      "outputs": [
        {
          "internalType": "uint256",
          "name": "",
          "type": "uint256"
        }
      ],
      "stateMutability": "view",
      "type": "function",
      "constant": true
    },
    {
      "inputs": [
        {
          "internalType": "address payable",
          "name": "to_addres",
          "type": "address"
        },
        {
          "internalType": "uint256",
          "name": "amount",
          "type": "uint256"
        }
      ],
      "name": "withdraw",
      "outputs": [],
      "stateMutability": "nonpayable",
      "type": "function"
    }
  ],
  "bytecode": "0x608060405234801561000f575f80fd5b50335f806101000a81548173ffffffffffffffffffffffffffffffffffffffff021916908373ffffffffffffffffffffffffffffffffffffffff1602179055506105648061005c5f395ff3fe608060405260043610610042575f3560e01c806312065fe0146100e7578063893d20e8146101115780638da5cb5b1461013b578063f3fef3a31461016557610097565b36610097573373ffffffffffffffffffffffffffffffffffffffff167f88a5966d370b9919b20f3e2c13ff65706f196a4e32cc2c12bf57088f885258743460405161008d919061030e565b60405180910390a2005b3373ffffffffffffffffffffffffffffffffffffffff167f88a5966d370b9919b20f3e2c13ff65706f196a4e32cc2c12bf57088f88525874346040516100dd919061030e565b60405180910390a2005b3480156100f2575f80fd5b506100fb61018d565b604051610108919061030e565b60405180910390f35b34801561011c575f80fd5b50610125610194565b6040516101329190610366565b60405180910390f35b348015610146575f80fd5b5061014f6101bb565b60405161015c919061039f565b60405180910390f35b348015610170575f80fd5b5061018b60048036038101906101869190610410565b6101de565b005b5f47905090565b5f805f9054906101000a900473ffffffffffffffffffffffffffffffffffffffff16905090565b5f8054906101000a900473ffffffffffffffffffffffffffffffffffffffff1681565b5f8054906101000a900473ffffffffffffffffffffffffffffffffffffffff1673ffffffffffffffffffffffffffffffffffffffff163373ffffffffffffffffffffffffffffffffffffffff161461026b576040517f08c379a0000000000000000000000000000000000000000000000000000000008152600401610262906104a8565b60405180910390fd5b478111156102ae576040517f08c379a00000000000000000000000000000000000000000000000000000000081526004016102a590610510565b60405180910390fd5b8173ffffffffffffffffffffffffffffffffffffffff166108fc8290811502906040515f60405180830381858888f193505050501580156102f1573d5f803e3d5ffd5b505050565b5f819050919050565b610308816102f6565b82525050565b5f6020820190506103215f8301846102ff565b92915050565b5f73ffffffffffffffffffffffffffffffffffffffff82169050919050565b5f61035082610327565b9050919050565b61036081610346565b82525050565b5f6020820190506103795f830184610357565b92915050565b5f61038982610327565b9050919050565b6103998161037f565b82525050565b5f6020820190506103b25f830184610390565b92915050565b5f80fd5b6103c58161037f565b81146103cf575f80fd5b50565b5f813590506103e0816103bc565b92915050565b6103ef816102f6565b81146103f9575f80fd5b50565b5f8135905061040a816103e6565b92915050565b5f8060408385031215610426576104256103b8565b5b5f610433858286016103d2565b9250506020610444858286016103fc565b9150509250929050565b5f82825260208201905092915050565b7f596f7520617265206e6f7420746865206f776e657200000000000000000000005f82015250565b5f61049260158361044e565b915061049d8261045e565b602082019050919050565b5f6020820190508181035f8301526104bf81610486565b9050919050565b7f496e73756666696369656e742062616c616e63650000000000000000000000005f82015250565b5f6104fa60148361044e565b9150610505826104c6565b602082019050919050565b5f6020820190508181035f830152610527816104ee565b905091905056fea264697066735822122077c9100c0a9efa182242a9e1789df3dcd7309055b6f3c8454ac43f57d6618eb864736f6c63430008150033",
  "immutableReferences": {},
  "source": "// SPDX-License-Identifier: MIT\n\npragma solidity >=0.8.21 <0.9.0;\n\ncontract FundMe {\n    event Received(address indexed sender, uint256 amount);\n    address payable public owner;\n\n    constructor() {\n        owner = payable(msg.sender);\n    }\n\n    function getOwner() public view returns (address) {\n        return owner;\n    }\n\n    function getBalance() public view returns (uint256) {\n        return address(this).balance;\n    }\n\n    function withdraw(address payable to_addres, uint256 amount) public {\n        require(msg.sender == owner, \"You are not the owner\");\n        require(amount <= address(this).balance, \"Insufficient balance\");\n        to_addres.transfer(amount);\n    }\n\n    receive() external payable {\n        emit Received(msg.sender, msg.value);\n    }\n\n    fallback() external payable {\n        emit Received(msg.sender, msg.value);\n    }\n}\n",
  "sourcePath": "/Users/michael/Desktop/ethereum-dev/contracts/FundMe.sol",
  "compiler": {
    "name": "solc",
    "version": "0.8.21+commit.d9974bed.Emscripten.clang"
  },
  "schemaVersion": "3.4.16",
  "updatedAt": "2024-10-31T13:16:16.764Z",
  "networkType": "ethereum",
  "devdoc": {
    "kind": "dev",
    "methods": {},
    "version": 1
  },
  "userdoc": {
    "kind": "user",
    "methods": {},
    "version": 1
  }
}