{
  "contractName": "Messenger",
  "abi": [
    {
      "inputs": [],
      "stateMutability": "nonpayable",
      "type": "constructor"
    },
    {
      "inputs": [],
      "name": "message",
      "outputs": [
        {
          "internalType": "string",
          "name": "",
          "type": "string"
        }
      ],
      "stateMutability": "view",
      "type": "function"
    },
    {
      "inputs": [],
      "name": "numberOfUpdates",
      "outputs": [
        {
          "internalType": "uint256",
          "name": "",
          "type": "uint256"
        }
      ],
      "stateMutability": "view",
      "type": "function"
    },
    {
      "inputs": [],
      "name": "owner",
      "outputs": [
        {
          "internalType": "address",
          "name": "",
          "type": "address"
        }
      ],
      "stateMutability": "view",
      "type": "function"
    },
    {
      "inputs": [
        {
          "internalType": "string",
          "name": "_newMessage",
          "type": "string"
        }
      ],
      "name": "updateMessage",
      "outputs": [],
      "stateMutability": "nonpayable",
      "type": "function"
    },
    {
      "inputs": [],
      "name": "viewMessage",
      "outputs": [
        {
          "internalType": "string",
          "name": "",
          "type": "string"
        }
      ],
      "stateMutability": "view",
      "type": "function"
    }
  ],
  "bytecode": "0x60806040526040518060400160405280601181526020017f696e6974616c206465706c6f796d656e74000000000000000000000000000000815250600290816200004a919062000308565b5034801562000057575f80fd5b503360015f6101000a81548173ffffffffffffffffffffffffffffffffffffffff021916908373ffffffffffffffffffffffffffffffffffffffff1602179055505f8081905550620003ec565b5f81519050919050565b7f4e487b71000000000000000000000000000000000000000000000000000000005f52604160045260245ffd5b7f4e487b71000000000000000000000000000000000000000000000000000000005f52602260045260245ffd5b5f60028204905060018216806200012057607f821691505b602082108103620001365762000135620000db565b5b50919050565b5f819050815f5260205f209050919050565b5f6020601f8301049050919050565b5f82821b905092915050565b5f600883026200019a7fffffffffffffffffffffffffffffffffffffffffffffffffffffffffffffffff826200015d565b620001a686836200015d565b95508019841693508086168417925050509392505050565b5f819050919050565b5f819050919050565b5f620001f0620001ea620001e484620001be565b620001c7565b620001be565b9050919050565b5f819050919050565b6200020b83620001d0565b620002236200021a82620001f7565b84845462000169565b825550505050565b5f90565b620002396200022b565b6200024681848462000200565b505050565b5b818110156200026d57620002615f826200022f565b6001810190506200024c565b5050565b601f821115620002bc5762000286816200013c565b62000291846200014e565b81016020851015620002a1578190505b620002b9620002b0856200014e565b8301826200024b565b50505b505050565b5f82821c905092915050565b5f620002de5f1984600802620002c1565b1980831691505092915050565b5f620002f88383620002cd565b9150826002028217905092915050565b6200031382620000a4565b67ffffffffffffffff8111156200032f576200032e620000ae565b5b6200033b825462000108565b6200034882828562000271565b5f60209050601f8311600181146200037e575f841562000369578287015190505b620003758582620002eb565b865550620003e4565b601f1984166200038e866200013c565b5f5b82811015620003b75784890151825560018201915060208501945060208101905062000390565b86831015620003d75784890151620003d3601f891682620002cd565b8355505b6001600288020188555050505b505050505050565b6109a380620003fa5f395ff3fe608060405234801561000f575f80fd5b5060043610610055575f3560e01c8063191384d1146100595780631923be24146100775780638da5cb5b14610093578063dcb9f271146100b1578063e21f37ce146100cf575b5f80fd5b6100616100ed565b60405161006e9190610375565b60405180910390f35b610091600480360381019061008c91906104d2565b61017d565b005b61009b610235565b6040516100a89190610558565b60405180910390f35b6100b961025a565b6040516100c69190610589565b60405180910390f35b6100d761025f565b6040516100e49190610375565b60405180910390f35b6060600280546100fc906105cf565b80601f0160208091040260200160405190810160405280929190818152602001828054610128906105cf565b80156101735780601f1061014a57610100808354040283529160200191610173565b820191905f5260205f20905b81548152906001019060200180831161015657829003601f168201915b5050505050905090565b60015f9054906101000a900473ffffffffffffffffffffffffffffffffffffffff1673ffffffffffffffffffffffffffffffffffffffff163373ffffffffffffffffffffffffffffffffffffffff161461020c576040517f08c379a00000000000000000000000000000000000000000000000000000000081526004016102039061066f565b60405180910390fd5b806002908161021b919061082a565b505f8081548092919061022d90610926565b919050555050565b60015f9054906101000a900473ffffffffffffffffffffffffffffffffffffffff1681565b5f5481565b6002805461026c906105cf565b80601f0160208091040260200160405190810160405280929190818152602001828054610298906105cf565b80156102e35780601f106102ba576101008083540402835291602001916102e3565b820191905f5260205f20905b8154815290600101906020018083116102c657829003601f168201915b505050505081565b5f81519050919050565b5f82825260208201905092915050565b5f5b83811015610322578082015181840152602081019050610307565b5f8484015250505050565b5f601f19601f8301169050919050565b5f610347826102eb565b61035181856102f5565b9350610361818560208601610305565b61036a8161032d565b840191505092915050565b5f6020820190508181035f83015261038d818461033d565b905092915050565b5f604051905090565b5f80fd5b5f80fd5b5f80fd5b5f80fd5b7f4e487b71000000000000000000000000000000000000000000000000000000005f52604160045260245ffd5b6103e48261032d565b810181811067ffffffffffffffff82111715610403576104026103ae565b5b80604052505050565b5f610415610395565b905061042182826103db565b919050565b5f67ffffffffffffffff8211156104405761043f6103ae565b5b6104498261032d565b9050602081019050919050565b828183375f83830152505050565b5f61047661047184610426565b61040c565b905082815260208101848484011115610492576104916103aa565b5b61049d848285610456565b509392505050565b5f82601f8301126104b9576104b86103a6565b5b81356104c9848260208601610464565b91505092915050565b5f602082840312156104e7576104e661039e565b5b5f82013567ffffffffffffffff811115610504576105036103a2565b5b610510848285016104a5565b91505092915050565b5f73ffffffffffffffffffffffffffffffffffffffff82169050919050565b5f61054282610519565b9050919050565b61055281610538565b82525050565b5f60208201905061056b5f830184610549565b92915050565b5f819050919050565b61058381610571565b82525050565b5f60208201905061059c5f83018461057a565b92915050565b7f4e487b71000000000000000000000000000000000000000000000000000000005f52602260045260245ffd5b5f60028204905060018216806105e657607f821691505b6020821081036105f9576105f86105a2565b5b50919050565b7f4f6e6c79206f776e65722063616e2075706461746520746865206d65737361675f8201527f6500000000000000000000000000000000000000000000000000000000000000602082015250565b5f6106596021836102f5565b9150610664826105ff565b604082019050919050565b5f6020820190508181035f8301526106868161064d565b9050919050565b5f819050815f5260205f209050919050565b5f6020601f8301049050919050565b5f82821b905092915050565b5f600883026106e97fffffffffffffffffffffffffffffffffffffffffffffffffffffffffffffffff826106ae565b6106f386836106ae565b95508019841693508086168417925050509392505050565b5f819050919050565b5f61072e61072961072484610571565b61070b565b610571565b9050919050565b5f819050919050565b61074783610714565b61075b61075382610735565b8484546106ba565b825550505050565b5f90565b61076f610763565b61077a81848461073e565b505050565b5b8181101561079d576107925f82610767565b600181019050610780565b5050565b601f8211156107e2576107b38161068d565b6107bc8461069f565b810160208510156107cb578190505b6107df6107d78561069f565b83018261077f565b50505b505050565b5f82821c905092915050565b5f6108025f19846008026107e7565b1980831691505092915050565b5f61081a83836107f3565b9150826002028217905092915050565b610833826102eb565b67ffffffffffffffff81111561084c5761084b6103ae565b5b61085682546105cf565b6108618282856107a1565b5f60209050601f831160018114610892575f8415610880578287015190505b61088a858261080f565b8655506108f1565b601f1984166108a08661068d565b5f5b828110156108c7578489015182556001820191506020850194506020810190506108a2565b868310156108e457848901516108e0601f8916826107f3565b8355505b6001600288020188555050505b505050505050565b7f4e487b71000000000000000000000000000000000000000000000000000000005f52601160045260245ffd5b5f61093082610571565b91507fffffffffffffffffffffffffffffffffffffffffffffffffffffffffffffffff8203610962576109616108f9565b5b60018201905091905056fea2646970667358221220f88e5d8c086a334260ae9019822c01fbd650d9efe77aa9795c9491af0e007f0b64736f6c63430008150033",
  "immutableReferences": {},
  "source": "// SPDX-License-Identifier: MIT\n\npragma solidity >=0.8.21 <0.9.0;\n\ncontract Messenger {\n    uint256 public numberOfUpdates;\n    address public owner;\n    string public message = \"inital deployment\";\n\n    constructor() {\n        owner = msg.sender;\n        numberOfUpdates = 0;\n    }\n\n    function updateMessage(string memory _newMessage) public {\n        require(msg.sender == owner, \"Only owner can update the message\");\n        message = _newMessage;\n        numberOfUpdates++;\n    }\n\n    function viewMessage() public view returns (string memory) {\n        return message;\n    }\n}\n",
  "sourcePath": "/Users/michael/Desktop/ethereum-dev/contracts/Messenger.sol",
  "compiler": {
    "name": "solc",
    "version": "0.8.21+commit.d9974bed.Emscripten.clang"
  },
  "schemaVersion": "3.4.16",
  "updatedAt": "2024-10-31T13:09:02.239Z",
  "devdoc": {
    "kind": "dev",
    "methods": {},
    "version": 1
  },
  "userdoc": {
    "kind": "user",
    "methods": {},
    "version": 1
  }
}